{
  "_format": "hh-sol-artifact-1",
  "contractName": "IDO",
  "sourceName": "contracts/IDO_Contract.sol",
  "abi": [
    {
      "inputs": [],
      "stateMutability": "nonpayable",
      "type": "constructor"
    },
    {
      "anonymous": false,
      "inputs": [
        {
          "indexed": true,
          "internalType": "address",
          "name": "owner",
          "type": "address"
        },
        {
          "indexed": true,
          "internalType": "address",
          "name": "spender",
          "type": "address"
        },
        {
          "indexed": false,
          "internalType": "uint256",
          "name": "value",
          "type": "uint256"
        }
      ],
      "name": "Approval",
      "type": "event"
    },
    {
      "anonymous": false,
      "inputs": [
        {
          "indexed": true,
          "internalType": "address",
          "name": "user",
          "type": "address"
        },
        {
          "indexed": false,
          "internalType": "uint256",
          "name": "amount",
          "type": "uint256"
        },
        {
          "indexed": false,
          "internalType": "uint256",
          "name": "yearGoneBy",
          "type": "uint256"
        },
        {
          "indexed": false,
          "internalType": "uint256",
          "name": "monthGoneBy",
          "type": "uint256"
        }
      ],
      "name": "Claim",
      "type": "event"
    },
    {
      "anonymous": false,
      "inputs": [
        {
          "indexed": true,
          "internalType": "address",
          "name": "user",
          "type": "address"
        },
        {
          "indexed": false,
          "internalType": "uint256",
          "name": "amount",
          "type": "uint256"
        }
      ],
      "name": "JoinWhiteList",
      "type": "event"
    },
    {
      "anonymous": false,
      "inputs": [
        {
          "indexed": true,
          "internalType": "address",
          "name": "previousOwner",
          "type": "address"
        },
        {
          "indexed": true,
          "internalType": "address",
          "name": "newOwner",
          "type": "address"
        }
      ],
      "name": "OwnershipTransferred",
      "type": "event"
    },
    {
      "anonymous": false,
      "inputs": [
        {
          "indexed": true,
          "internalType": "address",
          "name": "from",
          "type": "address"
        },
        {
          "indexed": true,
          "internalType": "address",
          "name": "to",
          "type": "address"
        },
        {
          "indexed": false,
          "internalType": "uint256",
          "name": "value",
          "type": "uint256"
        }
      ],
      "name": "Transfer",
      "type": "event"
    },
    {
      "anonymous": false,
      "inputs": [
        {
          "indexed": false,
          "internalType": "address",
          "name": "owner",
          "type": "address"
        },
        {
          "indexed": false,
          "internalType": "uint256",
          "name": "amount",
          "type": "uint256"
        }
      ],
      "name": "Vesting",
      "type": "event"
    },
    {
      "inputs": [],
      "name": "Token",
      "outputs": [
        {
          "internalType": "contract IERC20",
          "name": "",
          "type": "address"
        }
      ],
      "stateMutability": "view",
      "type": "function"
    },
    {
      "inputs": [
        {
          "internalType": "address",
          "name": "owner",
          "type": "address"
        },
        {
          "internalType": "address",
          "name": "spender",
          "type": "address"
        }
      ],
      "name": "allowance",
      "outputs": [
        {
          "internalType": "uint256",
          "name": "",
          "type": "uint256"
        }
      ],
      "stateMutability": "view",
      "type": "function"
    },
    {
      "inputs": [
        {
          "internalType": "address",
          "name": "spender",
          "type": "address"
        },
        {
          "internalType": "uint256",
          "name": "amount",
          "type": "uint256"
        }
      ],
      "name": "approve",
      "outputs": [
        {
          "internalType": "bool",
          "name": "",
          "type": "bool"
        }
      ],
      "stateMutability": "nonpayable",
      "type": "function"
    },
    {
      "inputs": [
        {
          "internalType": "address",
          "name": "account",
          "type": "address"
        }
      ],
      "name": "balanceOf",
      "outputs": [
        {
          "internalType": "uint256",
          "name": "",
          "type": "uint256"
        }
      ],
      "stateMutability": "view",
      "type": "function"
    },
    {
      "inputs": [],
      "name": "claim",
      "outputs": [],
      "stateMutability": "nonpayable",
      "type": "function"
    },
    {
      "inputs": [],
      "name": "cliff",
      "outputs": [
        {
          "internalType": "uint256",
          "name": "",
          "type": "uint256"
        }
      ],
      "stateMutability": "view",
      "type": "function"
    },
    {
      "inputs": [],
      "name": "decimals",
      "outputs": [
        {
          "internalType": "uint8",
          "name": "",
          "type": "uint8"
        }
      ],
      "stateMutability": "view",
      "type": "function"
    },
    {
      "inputs": [
        {
          "internalType": "address",
          "name": "spender",
          "type": "address"
        },
        {
          "internalType": "uint256",
          "name": "subtractedValue",
          "type": "uint256"
        }
      ],
      "name": "decreaseAllowance",
      "outputs": [
        {
          "internalType": "bool",
          "name": "",
          "type": "bool"
        }
      ],
      "stateMutability": "nonpayable",
      "type": "function"
    },
    {
      "inputs": [],
      "name": "firstRelease",
      "outputs": [
        {
          "internalType": "uint256",
          "name": "",
          "type": "uint256"
        }
      ],
      "stateMutability": "view",
      "type": "function"
    },
    {
      "inputs": [],
      "name": "fundVesting",
      "outputs": [],
      "stateMutability": "nonpayable",
      "type": "function"
    },
    {
      "inputs": [
        {
          "internalType": "address",
          "name": "spender",
          "type": "address"
        },
        {
          "internalType": "uint256",
          "name": "addedValue",
          "type": "uint256"
        }
      ],
      "name": "increaseAllowance",
      "outputs": [
        {
          "internalType": "bool",
          "name": "",
          "type": "bool"
        }
      ],
      "stateMutability": "nonpayable",
      "type": "function"
    },
    {
      "inputs": [
        {
          "internalType": "uint256",
          "name": "amount",
          "type": "uint256"
        }
      ],
      "name": "joinWhiteList",
      "outputs": [],
      "stateMutability": "payable",
      "type": "function"
    },
    {
      "inputs": [],
      "name": "name",
      "outputs": [
        {
          "internalType": "string",
          "name": "",
          "type": "string"
        }
      ],
      "stateMutability": "view",
      "type": "function"
    },
    {
      "inputs": [],
      "name": "owner",
      "outputs": [
        {
          "internalType": "address",
          "name": "",
          "type": "address"
        }
      ],
      "stateMutability": "view",
      "type": "function"
    },
    {
      "inputs": [],
      "name": "renounceOwnership",
      "outputs": [],
      "stateMutability": "nonpayable",
      "type": "function"
    },
    {
      "inputs": [],
      "name": "starTime",
      "outputs": [
        {
          "internalType": "uint256",
          "name": "",
          "type": "uint256"
        }
      ],
      "stateMutability": "view",
      "type": "function"
    },
    {
      "inputs": [],
      "name": "symbol",
      "outputs": [
        {
          "internalType": "string",
          "name": "",
          "type": "string"
        }
      ],
      "stateMutability": "view",
      "type": "function"
    },
    {
      "inputs": [],
      "name": "timePerPeriod",
      "outputs": [
        {
          "internalType": "uint256",
          "name": "",
          "type": "uint256"
        }
      ],
      "stateMutability": "view",
      "type": "function"
    },
    {
      "inputs": [],
      "name": "totalPeriods",
      "outputs": [
        {
          "internalType": "uint256",
          "name": "",
          "type": "uint256"
        }
      ],
      "stateMutability": "view",
      "type": "function"
    },
    {
      "inputs": [],
      "name": "totalSupply",
      "outputs": [
        {
          "internalType": "uint256",
          "name": "",
          "type": "uint256"
        }
      ],
      "stateMutability": "view",
      "type": "function"
    },
    {
      "inputs": [],
      "name": "totalToken",
      "outputs": [
        {
          "internalType": "uint256",
          "name": "",
          "type": "uint256"
        }
      ],
      "stateMutability": "view",
      "type": "function"
    },
    {
      "inputs": [
        {
          "internalType": "address",
          "name": "to",
          "type": "address"
        },
        {
          "internalType": "uint256",
          "name": "amount",
          "type": "uint256"
        }
      ],
      "name": "transfer",
      "outputs": [
        {
          "internalType": "bool",
          "name": "",
          "type": "bool"
        }
      ],
      "stateMutability": "nonpayable",
      "type": "function"
    },
    {
      "inputs": [
        {
          "internalType": "address",
          "name": "from",
          "type": "address"
        },
        {
          "internalType": "address",
          "name": "to",
          "type": "address"
        },
        {
          "internalType": "uint256",
          "name": "amount",
          "type": "uint256"
        }
      ],
      "name": "transferFrom",
      "outputs": [
        {
          "internalType": "bool",
          "name": "",
          "type": "bool"
        }
      ],
      "stateMutability": "nonpayable",
      "type": "function"
    },
    {
      "inputs": [
        {
          "internalType": "address",
          "name": "newOwner",
          "type": "address"
        }
      ],
      "name": "transferOwnership",
      "outputs": [],
      "stateMutability": "nonpayable",
      "type": "function"
    }
  ],
  "bytecode": "0x60806040526103e8600e553480156200001757600080fd5b506040518060400160405280600d81526020017f4e6561722050726f746f636f6c000000000000000000000000000000000000008152506040518060400160405280600581526020017f4e4541523200000000000000000000000000000000000000000000000000000081525081600390805190602001906200009c929190620003b3565b508060049080519060200190620000b5929190620003b3565b505050620000d8620000cc6200016260201b60201c565b6200016a60201b60201c565b620000f333686c6b935b8bbd4000006200023060201b60201c565b30600760006101000a81548173ffffffffffffffffffffffffffffffffffffffff021916908373ffffffffffffffffffffffffffffffffffffffff1602179055506008600a819055506001600b819055506001600c81905550426009819055506107d0600d819055506200060f565b600033905090565b6000600560009054906101000a900473ffffffffffffffffffffffffffffffffffffffff16905081600560006101000a81548173ffffffffffffffffffffffffffffffffffffffff021916908373ffffffffffffffffffffffffffffffffffffffff1602179055508173ffffffffffffffffffffffffffffffffffffffff168173ffffffffffffffffffffffffffffffffffffffff167f8be0079c531659141344cd1fd0a4f28419497f9722a3daafe3b4186f6b6457e060405160405180910390a35050565b600073ffffffffffffffffffffffffffffffffffffffff168273ffffffffffffffffffffffffffffffffffffffff161415620002a3576040517f08c379a00000000000000000000000000000000000000000000000000000000081526004016200029a906200049b565b60405180910390fd5b620002b760008383620003a960201b60201c565b8060026000828254620002cb9190620004eb565b92505081905550806000808473ffffffffffffffffffffffffffffffffffffffff1673ffffffffffffffffffffffffffffffffffffffff1681526020019081526020016000206000828254620003229190620004eb565b925050819055508173ffffffffffffffffffffffffffffffffffffffff16600073ffffffffffffffffffffffffffffffffffffffff167fddf252ad1be2c89b69c2b068fc378daa952ba7f163c4a11628f55a4df523b3ef83604051620003899190620004bd565b60405180910390a3620003a560008383620003ae60201b60201c565b5050565b505050565b505050565b828054620003c19062000552565b90600052602060002090601f016020900481019282620003e5576000855562000431565b82601f106200040057805160ff191683800117855562000431565b8280016001018555821562000431579182015b828111156200043057825182559160200191906001019062000413565b5b50905062000440919062000444565b5090565b5b808211156200045f57600081600090555060010162000445565b5090565b600062000472601f83620004da565b91506200047f82620005e6565b602082019050919050565b620004958162000548565b82525050565b60006020820190508181036000830152620004b68162000463565b9050919050565b6000602082019050620004d460008301846200048a565b92915050565b600082825260208201905092915050565b6000620004f88262000548565b9150620005058362000548565b9250827fffffffffffffffffffffffffffffffffffffffffffffffffffffffffffffffff038211156200053d576200053c62000588565b5b828201905092915050565b6000819050919050565b600060028204905060018216806200056b57607f821691505b60208210811415620005825762000581620005b7565b5b50919050565b7f4e487b7100000000000000000000000000000000000000000000000000000000600052601160045260246000fd5b7f4e487b7100000000000000000000000000000000000000000000000000000000600052602260045260246000fd5b7f45524332303a206d696e7420746f20746865207a65726f206164647265737300600082015250565b612f85806200061f6000396000f3fe60806040526004361061014b5760003560e01c8063715018a6116100b6578063c24126761161006f578063c241267614610477578063cf0f0e9c146104a2578063da5db748146104cd578063dd62ed3e146104f8578063f2fde38b14610535578063fea708f61461055e5761014b565b8063715018a61461036557806385a686781461037c5780638da5cb5b146103a757806395d89b41146103d2578063a457c2d7146103fd578063a9059cbb1461043a5761014b565b8063395093511161010857806339509351146102765780634e71d92d146102b357806354e715b2146102ca57806355453d47146102e1578063626be567146102fd57806370a08231146103285761014b565b806306fdde0314610150578063095ea7b31461017b57806313d033c0146101b857806318160ddd146101e357806323b872dd1461020e578063313ce5671461024b575b600080fd5b34801561015c57600080fd5b50610165610589565b6040516101729190612574565b60405180910390f35b34801561018757600080fd5b506101a2600480360381019061019d91906121b8565b61061b565b6040516101af919061253e565b60405180910390f35b3480156101c457600080fd5b506101cd61063e565b6040516101da9190612804565b60405180910390f35b3480156101ef57600080fd5b506101f8610644565b6040516102059190612804565b60405180910390f35b34801561021a57600080fd5b5061023560048036038101906102309190612169565b61064e565b604051610242919061253e565b60405180910390f35b34801561025757600080fd5b5061026061067d565b60405161026d9190612856565b60405180910390f35b34801561028257600080fd5b5061029d600480360381019061029891906121b8565b610686565b6040516102aa919061253e565b60405180910390f35b3480156102bf57600080fd5b506102c86106bd565b005b3480156102d657600080fd5b506102df6112bc565b005b6102fb60048036038101906102f6919061221d565b61139c565b005b34801561030957600080fd5b506103126115a0565b60405161031f9190612804565b60405180910390f35b34801561033457600080fd5b5061034f600480360381019061034a9190612104565b6115a6565b60405161035c9190612804565b60405180910390f35b34801561037157600080fd5b5061037a6115ee565b005b34801561038857600080fd5b50610391611676565b60405161039e9190612804565b60405180910390f35b3480156103b357600080fd5b506103bc61167c565b6040516103c991906124fa565b60405180910390f35b3480156103de57600080fd5b506103e76116a6565b6040516103f49190612574565b60405180910390f35b34801561040957600080fd5b50610424600480360381019061041f91906121b8565b611738565b604051610431919061253e565b60405180910390f35b34801561044657600080fd5b50610461600480360381019061045c91906121b8565b6117af565b60405161046e919061253e565b60405180910390f35b34801561048357600080fd5b5061048c6117d2565b6040516104999190612559565b60405180910390f35b3480156104ae57600080fd5b506104b76117f8565b6040516104c49190612804565b60405180910390f35b3480156104d957600080fd5b506104e26117fe565b6040516104ef9190612804565b60405180910390f35b34801561050457600080fd5b5061051f600480360381019061051a919061212d565b611804565b60405161052c9190612804565b60405180910390f35b34801561054157600080fd5b5061055c60048036038101906105579190612104565b61188b565b005b34801561056a57600080fd5b50610573611983565b6040516105809190612804565b60405180910390f35b60606003805461059890612a4e565b80601f01602080910402602001604051908101604052809291908181526020018280546105c490612a4e565b80156106115780601f106105e657610100808354040283529160200191610611565b820191906000526020600020905b8154815290600101906020018083116105f457829003601f168201915b5050505050905090565b600080610626611989565b9050610633818585611991565b600191505092915050565b600c5481565b6000600254905090565b600080610659611989565b9050610666858285611b5c565b610671858585611be8565b60019150509392505050565b60006012905090565b600080610691611989565b90506106b28185856106a38589611804565b6106ad919061288d565b611991565b600191505092915050565b6000600c600954426106cf919061296e565b6106d991906128e3565b90506000600c600954426106ed919061296e565b6106f79190612a80565b9050600060066000610707611989565b73ffffffffffffffffffffffffffffffffffffffff1673ffffffffffffffffffffffffffffffffffffffff1681526020019081526020016000206000015411610785576040517f08c379a000000000000000000000000000000000000000000000000000000000815260040161077c90612724565b60405180910390fd5b60066000610791611989565b73ffffffffffffffffffffffffffffffffffffffff1673ffffffffffffffffffffffffffffffffffffffff16815260200190815260200160002060000154600660006107db611989565b73ffffffffffffffffffffffffffffffffffffffff1673ffffffffffffffffffffffffffffffffffffffff16815260200190815260200160002060010154111561085a576040517f08c379a0000000000000000000000000000000000000000000000000000000008152600401610851906126c4565b60405180910390fd5b61087d604051806060016040528060218152602001612f2f602191398383611e69565b6001821015610b505760006064601460066000610898611989565b73ffffffffffffffffffffffffffffffffffffffff1673ffffffffffffffffffffffffffffffffffffffff168152602001908152602001600020600001546108e09190612914565b6108ea91906128e3565b905060c8600660006108fa611989565b73ffffffffffffffffffffffffffffffffffffffff1673ffffffffffffffffffffffffffffffffffffffff1681526020019081526020016000206001015410610978576040517f08c379a000000000000000000000000000000000000000000000000000000000815260040161096f90612764565b60405180910390fd5b600760009054906101000a900473ffffffffffffffffffffffffffffffffffffffff1673ffffffffffffffffffffffffffffffffffffffff1663a9059cbb6109be611989565b670de0b6b3a7640000846109d29190612914565b6040518363ffffffff1660e01b81526004016109ef929190612515565b602060405180830381600087803b158015610a0957600080fd5b505af1158015610a1d573d6000803e3d6000fd5b505050506040513d601f19601f82011682018060405250810190610a4191906121f4565b506064601460066000610a52611989565b73ffffffffffffffffffffffffffffffffffffffff1673ffffffffffffffffffffffffffffffffffffffff16815260200190815260200160002060000154610a9a9190612914565b610aa491906128e3565b60066000610ab0611989565b73ffffffffffffffffffffffffffffffffffffffff1673ffffffffffffffffffffffffffffffffffffffff16815260200190815260200160002060010181905550610af9611989565b73ffffffffffffffffffffffffffffffffffffffff167f45c072aa05b9853b5a993de7a28bc332ee01404a628cec1a23ce0f659f842ef1828585604051610b429392919061281f565b60405180910390a2506112b8565b600182148015610b625750600a548110155b80610b6e575060028210155b15610ee85760066000610b7f611989565b73ffffffffffffffffffffffffffffffffffffffff1673ffffffffffffffffffffffffffffffffffffffff1681526020019081526020016000206000015460066000610bc9611989565b73ffffffffffffffffffffffffffffffffffffffff1673ffffffffffffffffffffffffffffffffffffffff1681526020019081526020016000206001015410610c47576040517f08c379a0000000000000000000000000000000000000000000000000000000008152600401610c3e906127c4565b60405180910390fd5b600060066000610c55611989565b73ffffffffffffffffffffffffffffffffffffffff1673ffffffffffffffffffffffffffffffffffffffff1681526020019081526020016000206001015460066000610c9f611989565b73ffffffffffffffffffffffffffffffffffffffff1673ffffffffffffffffffffffffffffffffffffffff16815260200190815260200160002060000154610ce7919061296e565b9050610d286040518060400160405280600c81526020017f746f6b656e4c656674202573000000000000000000000000000000000000000081525082611f08565b600760009054906101000a900473ffffffffffffffffffffffffffffffffffffffff1673ffffffffffffffffffffffffffffffffffffffff1663a9059cbb610d6e611989565b670de0b6b3a764000084610d829190612914565b6040518363ffffffff1660e01b8152600401610d9f929190612515565b602060405180830381600087803b158015610db957600080fd5b505af1158015610dcd573d6000803e3d6000fd5b505050506040513d601f19601f82011682018060405250810190610df191906121f4565b5060066000610dfe611989565b73ffffffffffffffffffffffffffffffffffffffff1673ffffffffffffffffffffffffffffffffffffffff1681526020019081526020016000206000015460066000610e48611989565b73ffffffffffffffffffffffffffffffffffffffff1673ffffffffffffffffffffffffffffffffffffffff16815260200190815260200160002060010181905550610e91611989565b73ffffffffffffffffffffffffffffffffffffffff167f45c072aa05b9853b5a993de7a28bc332ee01404a628cec1a23ce0f659f842ef1828585604051610eda9392919061281f565b60405180910390a2506112b7565b60006064600a8360066000610efb611989565b73ffffffffffffffffffffffffffffffffffffffff1673ffffffffffffffffffffffffffffffffffffffff16815260200190815260200160002060000154610f439190612914565b610f4d9190612914565b610f5791906128e3565b6064601460066000610f67611989565b73ffffffffffffffffffffffffffffffffffffffff1673ffffffffffffffffffffffffffffffffffffffff16815260200190815260200160002060000154610faf9190612914565b610fb991906128e3565b610fc3919061288d565b9050600060066000610fd3611989565b73ffffffffffffffffffffffffffffffffffffffff1673ffffffffffffffffffffffffffffffffffffffff168152602001908152602001600020600101548261101c919061296e565b9050816006600061102b611989565b73ffffffffffffffffffffffffffffffffffffffff1673ffffffffffffffffffffffffffffffffffffffff16815260200190815260200160002060010154106110a9576040517f08c379a00000000000000000000000000000000000000000000000000000000081526004016110a0906126e4565b60405180910390fd5b600760009054906101000a900473ffffffffffffffffffffffffffffffffffffffff1673ffffffffffffffffffffffffffffffffffffffff1663a9059cbb6110ef611989565b670de0b6b3a7640000846111039190612914565b6040518363ffffffff1660e01b8152600401611120929190612515565b602060405180830381600087803b15801561113a57600080fd5b505af115801561114e573d6000803e3d6000fd5b505050506040513d601f19601f8201168201806040525081019061117291906121f4565b508060066000611180611989565b73ffffffffffffffffffffffffffffffffffffffff1673ffffffffffffffffffffffffffffffffffffffff16815260200190815260200160002060010160008282546111cc919061288d565b9250508190555061125b6040518060400160405280600c81526020017f75736572436c61696d202573000000000000000000000000000000000000000081525060066000611218611989565b73ffffffffffffffffffffffffffffffffffffffff1673ffffffffffffffffffffffffffffffffffffffff16815260200190815260200160002060010154611f08565b611263611989565b73ffffffffffffffffffffffffffffffffffffffff167f45c072aa05b9853b5a993de7a28bc332ee01404a628cec1a23ce0f659f842ef18286866040516112ac9392919061281f565b60405180910390a250505b5b5050565b6112c4611989565b73ffffffffffffffffffffffffffffffffffffffff166112e261167c565b73ffffffffffffffffffffffffffffffffffffffff1614611338576040517f08c379a000000000000000000000000000000000000000000000000000000000815260040161132f90612704565b60405180910390fd5b61135730670de0b6b3a7640000600d546113529190612914565b6117af565b507fd8c062e1121a4d8261df9c04930989855139a33297e0f1598cf7779aa5695b81611381611989565b600d54604051611392929190612515565b60405180910390a1565b6103e88111156113e1576040517f08c379a00000000000000000000000000000000000000000000000000000000081526004016113d890612664565b60405180910390fd5b6000600d5411611426576040517f08c379a000000000000000000000000000000000000000000000000000000000815260040161141d906127a4565b60405180910390fd5b61142e61167c565b73ffffffffffffffffffffffffffffffffffffffff166108fc670de0b6b3a7640000600e548461145e91906128e3565b6114689190612914565b9081150290604051600060405180830381858888f19350505050158015611493573d6000803e3d6000fd5b5080600660006114a1611989565b73ffffffffffffffffffffffffffffffffffffffff1673ffffffffffffffffffffffffffffffffffffffff168152602001908152602001600020600001819055506000600660006114f0611989565b73ffffffffffffffffffffffffffffffffffffffff1673ffffffffffffffffffffffffffffffffffffffff1681526020019081526020016000206001018190555061154681600d54611fa490919063ffffffff16565b5050611550611989565b73ffffffffffffffffffffffffffffffffffffffff167faaf2cf5bc15582c2faa722d0d088e43690ba6f9bf788a798fabd0b82f2adb3b7826040516115959190612804565b60405180910390a250565b600d5481565b60008060008373ffffffffffffffffffffffffffffffffffffffff1673ffffffffffffffffffffffffffffffffffffffff168152602001908152602001600020549050919050565b6115f6611989565b73ffffffffffffffffffffffffffffffffffffffff1661161461167c565b73ffffffffffffffffffffffffffffffffffffffff161461166a576040517f08c379a000000000000000000000000000000000000000000000000000000000815260040161166190612704565b60405180910390fd5b6116746000611fcc565b565b60095481565b6000600560009054906101000a900473ffffffffffffffffffffffffffffffffffffffff16905090565b6060600480546116b590612a4e565b80601f01602080910402602001604051908101604052809291908181526020018280546116e190612a4e565b801561172e5780601f106117035761010080835404028352916020019161172e565b820191906000526020600020905b81548152906001019060200180831161171157829003601f168201915b5050505050905090565b600080611743611989565b905060006117518286611804565b905083811015611796576040517f08c379a000000000000000000000000000000000000000000000000000000000815260040161178d906127e4565b60405180910390fd5b6117a38286868403611991565b60019250505092915050565b6000806117ba611989565b90506117c7818585611be8565b600191505092915050565b600760009054906101000a900473ffffffffffffffffffffffffffffffffffffffff1681565b600b5481565b60085481565b6000600160008473ffffffffffffffffffffffffffffffffffffffff1673ffffffffffffffffffffffffffffffffffffffff16815260200190815260200160002060008373ffffffffffffffffffffffffffffffffffffffff1673ffffffffffffffffffffffffffffffffffffffff16815260200190815260200160002054905092915050565b611893611989565b73ffffffffffffffffffffffffffffffffffffffff166118b161167c565b73ffffffffffffffffffffffffffffffffffffffff1614611907576040517f08c379a00000000000000000000000000000000000000000000000000000000081526004016118fe90612704565b60405180910390fd5b600073ffffffffffffffffffffffffffffffffffffffff168173ffffffffffffffffffffffffffffffffffffffff161415611977576040517f08c379a000000000000000000000000000000000000000000000000000000000815260040161196e90612624565b60405180910390fd5b61198081611fcc565b50565b600a5481565b600033905090565b600073ffffffffffffffffffffffffffffffffffffffff168373ffffffffffffffffffffffffffffffffffffffff161415611a01576040517f08c379a00000000000000000000000000000000000000000000000000000000081526004016119f890612784565b60405180910390fd5b600073ffffffffffffffffffffffffffffffffffffffff168273ffffffffffffffffffffffffffffffffffffffff161415611a71576040517f08c379a0000000000000000000000000000000000000000000000000000000008152600401611a6890612644565b60405180910390fd5b80600160008573ffffffffffffffffffffffffffffffffffffffff1673ffffffffffffffffffffffffffffffffffffffff16815260200190815260200160002060008473ffffffffffffffffffffffffffffffffffffffff1673ffffffffffffffffffffffffffffffffffffffff168152602001908152602001600020819055508173ffffffffffffffffffffffffffffffffffffffff168373ffffffffffffffffffffffffffffffffffffffff167f8c5be1e5ebec7d5bd14f71427d1e84f3dd0314c0f7b2291e5b200ac8c7c3b92583604051611b4f9190612804565b60405180910390a3505050565b6000611b688484611804565b90507fffffffffffffffffffffffffffffffffffffffffffffffffffffffffffffffff8114611be25781811015611bd4576040517f08c379a0000000000000000000000000000000000000000000000000000000008152600401611bcb90612684565b60405180910390fd5b611be18484848403611991565b5b50505050565b600073ffffffffffffffffffffffffffffffffffffffff168373ffffffffffffffffffffffffffffffffffffffff161415611c58576040517f08c379a0000000000000000000000000000000000000000000000000000000008152600401611c4f90612744565b60405180910390fd5b600073ffffffffffffffffffffffffffffffffffffffff168273ffffffffffffffffffffffffffffffffffffffff161415611cc8576040517f08c379a0000000000000000000000000000000000000000000000000000000008152600401611cbf90612604565b60405180910390fd5b611cd3838383612092565b60008060008573ffffffffffffffffffffffffffffffffffffffff1673ffffffffffffffffffffffffffffffffffffffff16815260200190815260200160002054905081811015611d59576040517f08c379a0000000000000000000000000000000000000000000000000000000008152600401611d50906126a4565b60405180910390fd5b8181036000808673ffffffffffffffffffffffffffffffffffffffff1673ffffffffffffffffffffffffffffffffffffffff16815260200190815260200160002081905550816000808573ffffffffffffffffffffffffffffffffffffffff1673ffffffffffffffffffffffffffffffffffffffff1681526020019081526020016000206000828254611dec919061288d565b925050819055508273ffffffffffffffffffffffffffffffffffffffff168473ffffffffffffffffffffffffffffffffffffffff167fddf252ad1be2c89b69c2b068fc378daa952ba7f163c4a11628f55a4df523b3ef84604051611e509190612804565b60405180910390a3611e63848484612097565b50505050565b611f03838383604051602401611e81939291906125c6565b6040516020818303038152906040527f969cdd03000000000000000000000000000000000000000000000000000000007bffffffffffffffffffffffffffffffffffffffffffffffffffffffff19166020820180517bffffffffffffffffffffffffffffffffffffffffffffffffffffffff838183161783525050505061209c565b505050565b611fa08282604051602401611f1e929190612596565b6040516020818303038152906040527f9710a9d0000000000000000000000000000000000000000000000000000000007bffffffffffffffffffffffffffffffffffffffffffffffffffffffff19166020820180517bffffffffffffffffffffffffffffffffffffffffffffffffffffffff838183161783525050505061209c565b5050565b60008083831115611fbb5760008091509150611fc5565b6001838503915091505b9250929050565b6000600560009054906101000a900473ffffffffffffffffffffffffffffffffffffffff16905081600560006101000a81548173ffffffffffffffffffffffffffffffffffffffff021916908373ffffffffffffffffffffffffffffffffffffffff1602179055508173ffffffffffffffffffffffffffffffffffffffff168173ffffffffffffffffffffffffffffffffffffffff167f8be0079c531659141344cd1fd0a4f28419497f9722a3daafe3b4186f6b6457e060405160405180910390a35050565b505050565b505050565b60008151905060006a636f6e736f6c652e6c6f679050602083016000808483855afa5050505050565b6000813590506120d481612ee9565b92915050565b6000815190506120e981612f00565b92915050565b6000813590506120fe81612f17565b92915050565b60006020828403121561211657600080fd5b6000612124848285016120c5565b91505092915050565b6000806040838503121561214057600080fd5b600061214e858286016120c5565b925050602061215f858286016120c5565b9150509250929050565b60008060006060848603121561217e57600080fd5b600061218c868287016120c5565b935050602061219d868287016120c5565b92505060406121ae868287016120ef565b9150509250925092565b600080604083850312156121cb57600080fd5b60006121d9858286016120c5565b92505060206121ea858286016120ef565b9150509250929050565b60006020828403121561220657600080fd5b6000612214848285016120da565b91505092915050565b60006020828403121561222f57600080fd5b600061223d848285016120ef565b91505092915050565b61224f816129a2565b82525050565b61225e816129b4565b82525050565b61226d816129f7565b82525050565b600061227e82612871565b612288818561287c565b9350612298818560208601612a1b565b6122a181612b3e565b840191505092915050565b60006122b960238361287c565b91506122c482612b4f565b604082019050919050565b60006122dc60268361287c565b91506122e782612b9e565b604082019050919050565b60006122ff60228361287c565b915061230a82612bed565b604082019050919050565b600061232260208361287c565b915061232d82612c3c565b602082019050919050565b6000612345601d8361287c565b915061235082612c65565b602082019050919050565b600061236860268361287c565b915061237382612c8e565b604082019050919050565b600061238b60148361287c565b915061239682612cdd565b602082019050919050565b60006123ae601e8361287c565b91506123b982612d06565b602082019050919050565b60006123d160208361287c565b91506123dc82612d2f565b602082019050919050565b60006123f460168361287c565b91506123ff82612d58565b602082019050919050565b600061241760258361287c565b915061242282612d81565b604082019050919050565b600061243a601d8361287c565b915061244582612dd0565b602082019050919050565b600061245d60248361287c565b915061246882612df9565b604082019050919050565b600061248060088361287c565b915061248b82612e48565b602082019050919050565b60006124a3601a8361287c565b91506124ae82612e71565b602082019050919050565b60006124c660258361287c565b91506124d182612e9a565b604082019050919050565b6124e5816129e0565b82525050565b6124f4816129ea565b82525050565b600060208201905061250f6000830184612246565b92915050565b600060408201905061252a6000830185612246565b61253760208301846124dc565b9392505050565b60006020820190506125536000830184612255565b92915050565b600060208201905061256e6000830184612264565b92915050565b6000602082019050818103600083015261258e8184612273565b905092915050565b600060408201905081810360008301526125b08185612273565b90506125bf60208301846124dc565b9392505050565b600060608201905081810360008301526125e08186612273565b90506125ef60208301856124dc565b6125fc60408301846124dc565b949350505050565b6000602082019050818103600083015261261d816122ac565b9050919050565b6000602082019050818103600083015261263d816122cf565b9050919050565b6000602082019050818103600083015261265d816122f2565b9050919050565b6000602082019050818103600083015261267d81612315565b9050919050565b6000602082019050818103600083015261269d81612338565b9050919050565b600060208201905081810360008301526126bd8161235b565b9050919050565b600060208201905081810360008301526126dd8161237e565b9050919050565b600060208201905081810360008301526126fd816123a1565b9050919050565b6000602082019050818103600083015261271d816123c4565b9050919050565b6000602082019050818103600083015261273d816123e7565b9050919050565b6000602082019050818103600083015261275d8161240a565b9050919050565b6000602082019050818103600083015261277d8161242d565b9050919050565b6000602082019050818103600083015261279d81612450565b9050919050565b600060208201905081810360008301526127bd81612473565b9050919050565b600060208201905081810360008301526127dd81612496565b9050919050565b600060208201905081810360008301526127fd816124b9565b9050919050565b600060208201905061281960008301846124dc565b92915050565b600060608201905061283460008301866124dc565b61284160208301856124dc565b61284e60408301846124dc565b949350505050565b600060208201905061286b60008301846124eb565b92915050565b600081519050919050565b600082825260208201905092915050565b6000612898826129e0565b91506128a3836129e0565b9250827fffffffffffffffffffffffffffffffffffffffffffffffffffffffffffffffff038211156128d8576128d7612ab1565b5b828201905092915050565b60006128ee826129e0565b91506128f9836129e0565b92508261290957612908612ae0565b5b828204905092915050565b600061291f826129e0565b915061292a836129e0565b9250817fffffffffffffffffffffffffffffffffffffffffffffffffffffffffffffffff048311821515161561296357612962612ab1565b5b828202905092915050565b6000612979826129e0565b9150612984836129e0565b92508282101561299757612996612ab1565b5b828203905092915050565b60006129ad826129c0565b9050919050565b60008115159050919050565b600073ffffffffffffffffffffffffffffffffffffffff82169050919050565b6000819050919050565b600060ff82169050919050565b6000612a0282612a09565b9050919050565b6000612a14826129c0565b9050919050565b60005b83811015612a39578082015181840152602081019050612a1e565b83811115612a48576000848401525b50505050565b60006002820490506001821680612a6657607f821691505b60208210811415612a7a57612a79612b0f565b5b50919050565b6000612a8b826129e0565b9150612a96836129e0565b925082612aa657612aa5612ae0565b5b828206905092915050565b7f4e487b7100000000000000000000000000000000000000000000000000000000600052601160045260246000fd5b7f4e487b7100000000000000000000000000000000000000000000000000000000600052601260045260246000fd5b7f4e487b7100000000000000000000000000000000000000000000000000000000600052602260045260246000fd5b6000601f19601f8301169050919050565b7f45524332303a207472616e7366657220746f20746865207a65726f206164647260008201527f6573730000000000000000000000000000000000000000000000000000000000602082015250565b7f4f776e61626c653a206e6577206f776e657220697320746865207a65726f206160008201527f6464726573730000000000000000000000000000000000000000000000000000602082015250565b7f45524332303a20617070726f766520746f20746865207a65726f20616464726560008201527f7373000000000000000000000000000000000000000000000000000000000000602082015250565b7f557365722063616e206f6e6c7920636c61696d2031302c30303020546f6b656e600082015250565b7f45524332303a20696e73756666696369656e7420616c6c6f77616e6365000000600082015250565b7f45524332303a207472616e7366657220616d6f756e742065786365656473206260008201527f616c616e63650000000000000000000000000000000000000000000000000000602082015250565b7f596f75206861766520636c61696d656420616c6c000000000000000000000000600082015250565b7f596f75206861766520636c61696d656420696e2074686973206d6f6e74680000600082015250565b7f4f776e61626c653a2063616c6c6572206973206e6f7420746865206f776e6572600082015250565b7f596f7520617265206e6f7420696e2076657374696e6700000000000000000000600082015250565b7f45524332303a207472616e736665722066726f6d20746865207a65726f20616460008201527f6472657373000000000000000000000000000000000000000000000000000000602082015250565b7f596f75206861766520636c61696d656420696e20746869732079656172000000600082015250565b7f45524332303a20617070726f76652066726f6d20746865207a65726f2061646460008201527f7265737300000000000000000000000000000000000000000000000000000000602082015250565b7f536f6c64206f7574000000000000000000000000000000000000000000000000600082015250565b7f596f75206861766520636c61696d656420616c6c20746f6b656e000000000000600082015250565b7f45524332303a2064656372656173656420616c6c6f77616e63652062656c6f7760008201527f207a65726f000000000000000000000000000000000000000000000000000000602082015250565b612ef2816129a2565b8114612efd57600080fd5b50565b612f09816129b4565b8114612f1457600080fd5b50565b612f20816129e0565b8114612f2b57600080fd5b5056fe5965617273476f6e65427920257320616e64204d6f6e746873476f6e6542757920a2646970667358221220834efe622833de011205cc16cf1b8d313c693e7455f8de8036781e80afa1631f64736f6c63430008040033",
  "linkReferences": {},
  "deployedLinkReferences": {}
}